:020000040000FA
:0608000033EF2BF01200A3
:02080600FEFFF3
:06080800ECEF10F01200FD
:02080E00C250D6
:08081000020B01E0010E1200D1
:0608180002EF24F01200C3
:02081E000900CF
:100820004B57000063020000030000004757000020
:100830005F02000004000000415700005102000068
:100840000600000040570000FF010000010000000A
:10085000355700003C0200000B000000315700003B
:100860005B020000040000001857000000020000B6
:1008700019000000060800006C02000002000000E1
:0C088000045700001902000014000000E2
:04088C00D9CFE6FFDB
:10089000E1CFD9FFFE0EDB5011E1FC0EDBCFE9FF0B
:1008A000FD0EDBCFEAFFEF507F0808E2FC0EDBCF46
:1008B000E9FFFD0EDBCFEAFF7F0EEF6EE552E7CFDB
:1008C000D9FF1200D9CFE6FFE1CFD9FFFE0EDB50F2
:1008D00013E1FC0EDBCFE9FFFD0EDBCFEAFFEFCF2C
:1008E00000F07F0E005C08E2FC0EDBCFE9FFFD0E9E
:1008F000DBCFEAFF7F0EEF6EE552E7CFD9FF1200A4
:10090000D9CFE6FFE1CFD9FFFD0EDBCF00F0FE0E21
:10091000DBCF01F0D890015004E6D00E005C070E4A
:10092000015806E20201D00E666F070E676F19D0FC
:10093000FD0EDBCF00F0FE0EDBCF01F0013404E250
:100940000050CE08080E015406E20201CE0E666F7A
:10095000080E676F06D0FD0EDBCF66F2FE0EDBCF12
:1009600067F266C200F067C201F0D00E005E070EAB
:10097000015A005000D0E552E7CFD9FF1200F00E27
:10098000E66EE2EC25F0E552938A93889386938491
:1009900099829980938E938C9A849A82998699846D
:1009A0009A8A9A8894809A869A8E9A9C919C010140
:1009B0007F0E8B6F8BC18AF18BC189F18BC188F15E
:1009C0008BC187F18BC186F18BC185F18BC184F11D
:1009D000936F93C192F193C191F193C190F193C13F
:1009E0008FF193C18EF193C18DF193C18CF1000E03
:1009F000E66EE66AE66EE66AE66EE66AE66EE66A67
:100A000058EC12F0F56E080EE15EF550F7EC2AF0A6
:100A100098EC22F0B1EC22F0D0EC1EF020EC17F0B4
:100A20000201010E006F800EE66E010EE66E16ECFE
:100A300012F0E552E5529DEF11F0A00EE66E010EA8
:100A4000E66EFDEC11F0E552E55287EC14F0C8DBE0
:100A500001017F0E8B6FDEDB0201265103E0CCEC3F
:100A600009F002D030EC26F00101A3A90DD043EC2F
:100A700009F00101A3AB07D00F0EE66EE66A54EC55
:100A800009F0E552E55205D002012C6B01017F0E01
:100A90008C6F0101A3AF02D0B2EC09F0020119057D
:100AA00025E10101A751006E016AFF0ED8800056B2
:100AB000000E015600C0E6FF01C0E6FFE2D8E55295
:100AC000E552F3CF84F10101AB51006E016AFF0ED4
:100AD000D8800056000E015600C0E6FF01C0E6FFB8
:100AE000D0D8E552E552F3CF86F13FD00101A651AF
:100AF000056AD00F046E070E0522AA5100010424D6
:100B0000026E000E0520036E7F0E025E000E035A79
:100B100002C0E6FF03C0E6FFF3DEE552E552006ED9
:100B2000016AFF0ED8800056000E015600C084F105
:100B30000101A651036AD00F026E070E0322AA51CB
:100B4000046E056A0450025C006E05500358016E85
:100B50007F0E0026000E012200C0E6FF01C0E6FF66
:100B6000CFDEE552E5520101866F0101A751006E0B
:100B7000016AD890015004E6840E005C000E015812
:100B800005E2A7517A0802E27F0EA76FAB51006E13
:100B9000016AD890015004E6840E005C000E0158F2
:100BA00005E2AB517A0802E27F0EAB6F02011A51E7
:100BB00001E0ACD97F0E0101AB5D03E101017F0EC5
:100BC000866F7F0E0101A75D03E101017F0E846F37
:100BD0001AD801018651006E016AFE0ED8800056B7
:100BE000000E015600C086F184C185F186C187F1EF
:100BF00042EC0AF0800EE66E010EE66E16EC12F084
:100C0000E552E55212000201232B0F0E235D0EE385
:100C10000201535107E1010180A902D0809901D05E
:100C2000808902D0010180890201236B02014351B6
:100C300005E00201242B000E252303D00201246BC2
:100C4000256B0F0E25AF02D0D89003D0245D000E87
:100C5000255906E3010180990F0E0201246F256BCF
:100C6000265103E00101808F02D00101809F0F0E09
:100C70000201295D03E30101808B02D00101809B09
:100C80001200D9CFE6FFE1CFD9FFFD0EDBCF00F098
:100C9000FE0EDBCF01F0D890015004E67F0E005C21
:100CA000000E01586BE2E66AE66AFE0EE66E420E40
:100CB000E66EAFEC1CF0E552E552E552E55233C06A
:100CC00002F034C003F035C004F036C005F002C0B5
:100CD000E6FF03C0E6FF04C0E6FF05C0E6FFFD0E29
:100CE000DBCF35F0FE0EDBCF36F0AAEC17F034C0C8
:100CF0000AF035C00BF036C00CF037C00DF00AC05A
:100D0000E6FF0BC0E6FF0CC0E6FF0DC0E6FFAFEC50
:100D10001CF0E552E552E552E552E552E7CF05F009
:100D2000E552E7CF04F0E552E7CF03F0E552E7CF15
:100D300002F033C006F034C007F035C008F036C00A
:100D400009F006C039F007C03AF008C03BF009C00E
:100D50003CF002C034F003C035F004C036F005C0EA
:100D600037F054EC18F0F5EC18F035C000F036C050
:100D700001F000C0F3FF01C0F4FFC4D0FD0EDBCFD3
:100D800000F0FE0EDBCF01F0013404E200507F08DA
:100D9000000E015401E3A7D0E66AE66AFE0EE66E95
:100DA000420EE66EAFEC1CF0E552E552E552E5521C
:100DB00033C00AF034C00BF035C00CF036C00DF073
:100DC000396A3A6A800E3B6EBF0E3C6E0AC034F040
:100DD0000BC035F00CC036F00DC037F054EC18F0F5
:100DE00034C006F035C007F036C008F037C009F04F
:100DF00006C0E6FF07C0E6FF08C0E6FF09C0E6FF41
:100E0000FD0EDBCF16F0FE0EDBCF17F0166C171EB3
:100E1000000E1722FF0E1626000E172216C035F000
:100E200017C036F0AAEC17F034C012F035C013F03A
:100E300036C014F037C015F012C0E6FF13C0E6FF4D
:100E400014C0E6FF15C0E6FFAFEC1CF0E552E5521A
:100E5000E552E552E552E7CF09F0E552E7CF08F059
:100E6000E552E7CF07F0E552E7CF06F033C00EF0CA
:100E700034C00FF035C010F036C011F00EC039F09C
:100E80000FC03AF010C03BF011C03CF006C034F087
:100E900007C035F008C036F009C037F054EC18F040
:100EA00034C002F035C003F036C004F037C005F09E
:100EB000396A3A6A7F0E3B6E430E3C6E02C034F0D4
:100EC00003C035F004C036F005C037F0BEEC17F0B3
:100ED000F5EC18F035C000F036C001F000C0F3FFAB
:100EE00001C0F4FF0FD0D950FD0FE96EFF0EDA20DC
:100EF000EA6E7F0EEE1801E1ED5004E17F0EF36E15
:100F0000F46A00D0E552E7CFD9FF12000101845105
:100F1000006E016A02011E510118E8AE02D00134D0
:100F200004D000501D5D01501E5923E2010184517F
:100F3000006E016A02011A51036A1D25026E1E51DC
:100F4000032203500118E8AE02D0013404D000504F
:100F5000025C0150035808E21A51006E016A005009
:100F60001D2701501E2305D00101845102011D6F70
:100F70001E6B01018451006E016A020101501E19AD
:100F8000E8AE02D01E3504D01D51005C1E51015840
:100F900026E201018451006E016A02011A51046EB9
:100FA000056A04501D5D026E05501E59036E015006
:100FB0000318E8AE02D0033404D00250005C0350A2
:100FC000015808E21A51006E016A00501D5F01507D
:100FD0001E5B05D00101845102011D6F1E6B0101D2
:100FE0008651006E016A02011C510118E8AE02D060
:100FF000013404D000501B5D01501C5923E2010153
:101000008651006E016A02011A51036A1B25026EA5
:101010001C51032203500118E8AE02D0013404D061
:101020000050025C0150035808E21A51006E016A38
:1010300000501B2701501C2305D0010186510201DD
:101040001B6F1C6B01018651006E016A0201015089
:101050001C19E8AE02D01C3504D01B51005C1C5199
:10106000015826E201018651006E016A02011A51FF
:10107000046E056A04501B5D026E05501C59036E18
:1010800001500318E8AE02D0033404D00250005CD3
:101090000350015808E21A51006E016A00501B5FAC
:1010A00001501C5B05D00101865102011B6F1C6BB6
:1010B0001DC284F11BC286F11200D9CFE6FFE1CF39
:1010C000D9FF040EE126DE6ADD6A020EDB6A030E3A
:1010D000DB6A0201223504E221517F08000E22550D
:1010E0000CE27F0E0101A75D08E2010EF36E020E15
:1010F000F3CFDBFF030EDB6A15D07F0E020122AFB8
:1011000002D0D89003D0215D000E22590BE20101DC
:10111000A7517F0807E2010EF36E020EF3CFDBFF4B
:10112000030EDB6A0201203504E21F517F08000E26
:1011300020550CE27F0E0101AB5D08E2010EF36E5B
:10114000020EF3CFDBFF030EDB6A15D07F0E020128
:1011500020AF02D0D89003D01F5D000E20590BE2C3
:101160000101AB517F0807E2010EF36E020EF3CFCF
:10117000DBFF030EDB6AD950020FE96EDACFEAFF1C
:10118000EE50ED1004E0010EDE6EDD6A02D0DE6A84
:10119000DD6A010184510101A75D09E10101865168
:1011A0000101AB5D04E1020EDB6A030EDB6A0101A3
:1011B00084510201216F226B0101865102011F6FD0
:1011C000206BDECF00F0DDCF01F000C0F3FF01C0E7
:1011D000F4FF00D0D9CFE1FFE552E7CFD9FF1200ED
:1011E0000101A2AD12D0020128050EE126510AE14B
:1011F000272B050E275D04E3010E266F286B01D017
:10120000266B02D0266B286B04D00201276B010EDF
:10121000286F120087A003D00201292B02D00201FF
:10122000296B0F0E295D07E301017F0E8A6F020112
:101230000F0E296F0FD00101A3AD09D001018A5112
:101240000A0803E20A0E8A5F01D08A6B03D001010B
:101250007F0E8A6F87A202D002012A2B090E02019B
:101260002A5D0EE3090E2A6F87A406D001017F0EC6
:101270008B6F02012A6B03D00101C80E8B6F02D065
:1012800087B42A6B120001018C51006E016AD8905C
:10129000015004E6EB0E005C000E015803E2140E50
:1012A0008C2701D08C691200D9CFE6FFE1CFD9FF9E
:1012B00001018C51006E016AD890015004E6BE0E07
:1012C000005C000E01584AE302012C2B2B2B500E20
:1012D0002C5D44E3500E2C6F2B510A0803E30101EF
:1012E0008B693CD02B510A081EE22B51006E016A1B
:1012F0000A0EE76EFD0EDBCF02F0FE0EDBCF03F031
:10130000E7500226000E032203500118E8AE02D077
:10131000013404D00050025C0150035804E3010181
:101320007F0E8B6F1BD02B51006E016A0A0EE76E89
:10133000FD0EDBCF02F0FE0EDBCF03F0E7500226FE
:10134000000E032203500118E8AE02D0013404D08D
:101350000050025C0150035801E22B6BE552E7CFCD
:10136000D9FF12000101280E8B6F6E0E8C5D03E316
:101370000A0E8C5F02D0640E8C6F8A51006E016A77
:10138000013404E20050F508000E015403E30A0E94
:101390008A2701D08A691200ADC188F10101A951E3
:1013A000006E016AFE0ED8800056000E015600C085
:1013B00089F1A351100B36E0A351200B33E0AD515E
:1013C0000A0804E30101BE0E886F12D0AD51006E11
:1013D000016AD890015004E6F50E005C000E015839
:1013E00004E30101380E886F03D001017F0E886F7E
:1013F0000101A951006E016AD890015004E6F50E72
:10140000005C000E015804E30101700E896F0AD0E0
:10141000A9510A0804E30101980E896F03D0010164
:101420007F0E896F0101AD51006E016AD8900150A5
:1014300004E6840E005C000E015806E2AD517A0805
:1014400003E201017F0E886F0101A951006E016A5C
:10145000D890015004E6820E005C000E015806E2AE
:10146000A9517C0803E201017F0E896F01018851B7
:10147000006E016AFE0ED8800056000E015600C0B4
:1014800088F112008F0EE66EEDEC25F0E552F3CFF9
:1014900000F0F4CF01F06C0E005C020E015806E380
:1014A000010189517F0802E27F0E896F8F0EE66E7F
:1014B000EDEC25F0E552F3CF00F0F4CF01F01C0E77
:1014C000D8800054020E015406E37F0E0101895DAD
:1014D00002E27F0E896F9F0EE66EEDEC25F0E5527D
:1014E000F3CF00F0F4CF01F0FE0ED8800054030ECD
:1014F000015406E27F0E0101885D02E27F0E886FD3
:10150000A70EE66EEDEC25F0E552F3CF00F0F4CF38
:1015100001F0FE0ED8800054030E015406E20101D2
:1015200088517F0802E27F0E886F980E0101895D65
:1015300003E3980E896F05D08951700802E3700E9D
:10154000896F8851380803E3380E886F05D0BE0EC6
:10155000885D02E3BE0E886F120081B405D0010ED3
:10156000F36EF46A27D026D081B605D0020EF36E52
:10157000F46A20D01FD081B805D0030EF36EF46A50
:1015800019D018D081BA05D0040EF36EF46A12D0C7
:1015900011D081BC05D0050EF36EF46A0BD00AD0D1
:1015A00081BE05D0060EF36EF46A04D003D0F36A50
:0615B000F46A00D01200F5
:0A15B60017EC10F0FB0EDBCFF3FF83
:1015C000DB06F35000090AE065EC10F0FA0ED0ECEF
:1015D00010F0F3E1011CF1E1010E01D0000E46EF25
:1015E00010F017EC10F03B0EE12402E3E168E65244
:1015F000E16E010EDB6A020EDB6AF90EDBCFF6FF4D
:10160000FA0EDBCFF7FFFB0EDBCFF8FF0800F5503B
:10161000DF6EDF5002E16CEF0FF0250EDF5C02E0C1
:101620005FEF0FF0030EDB6A040EDB6A050EDB6A68
:10163000060EDB6A070EDB6A7FEC0FF02D0EDF5C17
:101640000CE02B0EDF5C09E0200EDF5C06E0230ED1
:10165000DF5C03E0300EDF5C1AE1DF50300A14E09B
:10166000130A0FE0030A0AE00B0A05E0060AE4E1A8
:10167000030EDB80E1D7030EDB82DED7030EDB84B3
:10168000DBD7030EDB86D8D7030EDB88D5D72A0E2F
:10169000DF5C1BE17BEC0FF0C9EC0FF010E0030EF8
:1016A000DB8035683668130EDBCF3AF0140EDBCFE3
:1016B0003BF02EEC1AF0040E33C0DBFF03D0130E08
:1016C000B2EC0FF07FEC0FF00BD0090EDB6A20ECD0
:1016D00010F003E094EC10F0FAD7090EB2EC0FF022
:1016E000030EDBB0DB982E0EDF5C1BE17FEC0FF00E
:1016F0002A0EDF5C0BE17BEC0FF0C9EC0FF003E18D
:10170000130E04EC10F07FEC0FF00BD0090EDB6A27
:1017100020EC10F003E094EC10F0FAD7090E04EC82
:1017200010F0680EDF5C07E17FEC0FF0680EDF5C05
:101730001DE1030E18D0740EDF5C17E07A0EDF5C3B
:1017400014E0480EDF5C06E0540EDF5C03E05A0E46
:10175000DF5C02E1020E07D06C0EDF5C03E06A0E74
:10176000DF5C04E1010E57EC10F0C9DBDF506E0ABC
:1017700001E181D31E0A01E192D1200A01E18FD15A
:101780003F0A01E149D11A0A01E146D10D0A01E1FE
:1017900043D1200A01E140D13A0A01E13DD1200ABA
:1017A00001E13AD1260A01E135D10D0A01E132D138
:1017B0001A0A01E1D9D0200A4AE0300A1FE0460A9D
:1017C0000EE0250A01E085D3D950F90FE96EFF0E2E
:1017D000DA20EA6E010EEE5E000EEE5AEE5A65EC6D
:1017E00010F0250EE66E95DB03E1011C01E16BD3E1
:1017F00061EC10F001E26DD3DB2A6BD3080EDB6ADB
:10180000040EDB50010806E2040EDB0429EC10F0A4
:10181000DB508BDB080EDB5009E0030EDB50010BC5
:1018200005E172DB01E04FD3080EDB6A64DBEFCF2A
:10183000DFFFD9EC10F003E1011C01E144D361ECBE
:1018400010F001E3DB2A60DB01E143D33CD3070E58
:10185000DB5002080FE1A5EC10F0030E6CEC10F069
:101860000E0EEECFDBFF0F0EEECFDBFF100EEECF36
:10187000DBFF20D0F70EDBCF03F0F80EDBCF04F058
:10188000020E035E000E045AF70E03C0DBFFF80ED3
:1018900004C0DBFF03C0E9FF04C0EAFF5CEC10F00A
:1018A000026A0E0E00C0DBFF0F0E01C0DBFF100E40
:1018B00002C0DBFF0E0EDBCFE6FF0F0EDBCFE6FF35
:1018C000100EDBCFE6FF14EC2AF0E552E552E552AC
:1018D000130E34C0DBFF140E35C0DBFF060EDB50E9
:1018E00005E0130EA0EC10F001E26ADBC4EC10F08E
:1018F00002E2130E37DB87EC10F006E0040EA0ECDA
:1019000010F002E2050E2EDB030EDBB005D0FCDA90
:1019100001E0D9D2080EDB6A090EDB6A0E0EDBCFBE
:10192000F6FF0F0EDBCFF7FF100EDBCFF8FF08003E
:10193000F550DF6EDF5014E0CAEC10F011E2D9EC84
:1019400010F003E1011C01E1BED2BBDB01E3DB2AA5
:10195000090EDB2AD9500E0FE96E000ECBDBE7D75C
:10196000D3DA01E1B6D2AFD2C6DA110EEECFDBFF89
:10197000120EEDCFDBFF110EDBCFE6FF120EDBCF39
:10198000E6FF06EC2AF0E552E552130EF3CFDBFF3B
:10199000140EF4CFDBFF060EDB5004E0130ED0DB99
:1019A00001E20EDBC4EC10F002E2130EDBDAAFDB77
:1019B00005E0040EC5DB02E2050ED4DA030EDBB04F
:1019C00005D0A2DA01E07FD2080EDB6A090EDB6ADD
:1019D000110EDBCFE9FF120EDBCFEAFFEFCFDFFF07
:1019E000DF5014E0D7DB12E2E4DB03E1011C01E18C
:1019F0006AD267DB01E3DB2A090EDB2A110EDB2A40
:101A0000DBCFE9FF120EE8E3DB2AE6D77DDA01E15E
:101A100060D259D2030EDB8E070EDB0410E195DB9A
:101A2000040E5ADB0A0EEECFDBFF0B0EEECFDBFF10
:101A30000C0EEECFDBFF0D0EEECFDBFF6CD0070EF2
:101A4000DB5003082CE1030EDBAE0DD0B2DA020E40
:101A500076DAEFCF00F0016A026A036A00AE39D08D
:101A60000168026835D0F70EDBCF01F0F80EDBCF4E
:101A700002F0020E015E000E025AF70E01C0DBFFFB
:101A8000F80E02C0DBFF01C0E9FF02C0EAFFEFCFA2
:101A900000F00A0E00C0DBFF0B0EDB6A38D0070E29
:101AA000DB50020809E1030EDBAE04D059DB02AEC5
:101AB00010D00ED055DB0DD0030EDBAE12D079DA8C
:101AC000020E3DDAF9DA026A036A01AE02D0026858
:101AD0000368E2DA0C0E02C0DBFF0D0E03C0DBFF71
:101AE0001AD0F70EDBCF02F0F80EDBCF03F0020EB8
:101AF000025E000E035AF70E02C0DBFFF80E03C0B1
:101B0000DBFF02C0E9FF03C0EAFFD6DAC5DA0C0E3C
:101B1000DB6A0D0EDB6A060EDB5005E1010EF36E8B
:101B2000050EF3CFDBFF150EDB6A160EDB6AD9500C
:101B3000370F006E000EDA20016E390E00C0DBFF99
:101B40003A0E01C0DBFF380EDB6A080EDB6A0A0EB4
:101B5000AEDADF50780A12E0200A10E0280A0CE022
:101B6000200A0AE03F0A06E00D0A02E0200A08E126
:101B7000020E05D0080E03D0080EDF26100E97DAED
:101B8000030EDBBE02D0DB92DB94DB50800B26E041
:101B90008ADA030EEB50000AE8AE02D0D89008D0E3
:101BA000000EEE5C000EEE58000EEE58000EEE58E1
:101BB00015E211DA386839683A683B689AEC29F01E
:101BC0000A0E2FC0DBFF0B0E30C0DBFF0C0E31C046
:101BD000DBFF0D0E32C0DBFF2D0E08D0030EDBA2A3
:101BE00002D02B0E03D0DBA408D0200EF36E170E0C
:101BF000F3CFDBFF150EDB2A02D0170EDB6A050ED2
:101C0000DB5003E1B5D901E189D0E90E006E560E33
:101C1000016E000E026E070EDBCF03F0046A056A48
:101C2000066A03C038F004C039F005C03AF006C0B7
:101C30003BF0D1D99EEC2AF000502F24F36E0150D6
:101C40003020F46E02503120F86EF4CFF7FFF3CF5E
:101C5000F6FF0800090EF5CFDBFF580EDF5C0FE141
:101C6000610EF36E090E79D90AE3200E006E090E9B
:101C7000DBCFE7FF0050E75E090EE7CFDBFF070E83
:101C8000DBCF00F0016A026A036A0DDA00C038F0A7
:101C900001C039F002C03AF003C03BF0EECF33F0A0
:101CA000EECF34F0EECF35F0EFCF36F09EEC2AF0E9
:101CB00036C0EDFF35C0EDFF34C0EDFF33C0EFFFA0
:101CC000390EDBCFE9FFDB063A0EDBCFEAFF01E29C
:101CD000DB06090EDBCFEFFF150EDB2A49D995E1B4
:101CE000030EDBA61DD06F0EDF5C06E1BFD918E343
:101CF000150EDB2859DA14D0780EDF5C09E0580E97
:101D0000DF5C06E0620EDF5C03E0420EDF5C08E1B0
:101D1000020EF36E160EF3CFDBFF02D0150EDB6A58
:101D2000030EDB50100B0EE0040EDBCF00F0050EAF
:101D3000DB50D880005406E2060EDB5003E1040EAF
:101D4000DB5032DA93D90AE2050EDBCFE7FF150E3E
:101D5000DB50E75E050EE7CFDBFF02D0050EDB6A46
:101D6000040EDBCF00F0160E43D9D880005414E2E5
:101D7000160EDBCFE6FF150EDBCFE6FF040EDBCF42
:101D8000E6FF050EDB50E552E75CE552D880E754EC
:101D9000E552D880E7545DD9030EDB50010B0BE10F
:101DA000080EDB5008E0B0D801E08DD0080EDB5003
:101DB000BCD8080EDB6A170EDB5007E086D9170E79
:101DC000EFD903E1011C01E17ED0160EDB5016E0D5
:101DD0007CD9300EE66E9DD802E1011C74E075D905
:101DE000DFCFE6FF58EC29F0E552E552E552F4CF9B
:101DF00001F00001F31C02E1011C65E0050EDBCFE0
:101E000000F0160EDB50D880005409E2050EDBCF3F
:101E1000E7FF160EDB50E75E050EE7CFDBFF300E67
:101E2000E66E050EC9D94FE1390EDB2ADBCFE9FF9B
:101E30003A0E01E3DB2ADBCFEAFF090EEFCFDBFF2F
:101E4000DB500EE042D9090EABD902E1011C3BE0A8
:101E5000390EDB2ADBCFE9FF3A0EEDE3DB2AEBD7C5
:101E600053D831E1160EDBCFE6FF080EC1D8E5529C
:101E7000E7245BD82ED0070EDB50030A1CE0010AD2
:101E800014E0030A07E079D9DBCFEEFF020EDBCFC7
:101E9000EDFF1FD0F3D8056A03AE02D004680568D1
:101EA0002AD8BAD805C0EEFF14D0E8D803BE04681B
:101EB00022D8B2D80ED061D9DBCFEFFF0AD079D9C2
:101EC00005E1011C03E1F368F46810D0FAD801E3DE
:101ED000DB2A77D906EF0BF0010EDBCF00F0020E04
:101EE000DBCF01F000C0F3FF01C0F4FFD9CFE1FF69
:101EF000DACFE2FFCBD029D9020E6CEF10F061D916
:101F00000800F550DF6E1200200EE66E080EDCEFC2
:101F100010F058EC29F0E552E552E552F3CF00F00D
:101F2000F4CF01F00001F31C1200006E016AD950D9
:101F3000010F4DD90050EE260150ED221200045E33
:101F4000000E055AF70E04C0DBFFF80E05C0DBFFDC
:101F500004C0E9FF05C0EAFF1200DBCFF4FFF35035
:101F6000F45C1200DB50E76E040EE7CFDBFF1200DB
:101F70000A0EDBCF00F00B0EDBCF01F00C0EDBCF37
:101F800002F00D0EDBCF03F0005001100210031021
:101F90001200130EEECFDBFF140EEDCFDBFF130E9E
:101FA000DBCF00F0140EDBCF01F00001800E011436
:101FB0001200F70EDBCF04F0F80EDBCF05F01200B5
:101FC000050EDB50E66ED950130F01D9E552E750EC
:101FD000EE6EED6A12000A0EDBCF33F00B0EDBCF94
:101FE00034F00C0EDBCF35F00D0EDBCF36F01200E7
:101FF000DBCFE6FF150EDBCFE6FF050EDB50E5522B
:10200000E724E552E7241200DB50CED8010EF36E30
:10201000060EF3CFDBFF1200EE50EFCFEAFFE96EC2
:1020200002C0EEFF03C0EEFF04C0EEFF1200D9CFE6
:10203000E6FFDACFE6FFE1CFD9FFE2CFDAFF120009
:10204000DFCFE6FFE66A21EC2BF0E552E552F350D4
:102050001200E76E080EE7CFDBFF1200EECF00F0B4
:10206000EECF01F0EFCF02F0036A1200050EDBCFD6
:1020700000F0150EDB50D88000541200010EDBCFAB
:1020800002F0020EDBCF03F0046A1200E552E5CF46
:10209000DAFFE7CFD9FF12000A0E00C0DBFF0B0EFC
:1020A00001C0DBFF1200D9500A0FE7EF10F0F36E0A
:1020B000070EF3CFDBFF1200EECF00F0EFCF01F001
:1020C0001200010EDB2A020E1200FC0EDBCFE6FF2F
:1020D000FD0EDBCFE6FF1200005E000E015AF70E88
:1020E00000C0DBFFF80E01C0DBFF00C0E9FF01C04C
:1020F000EAFF1200DA20EA6EEF2AEECFF6FF000EBA
:10210000EF22EECFF7FFEF22EECFF8FF1200040E22
:10211000DBCFE6FF130EDB50E552E75C9ADFDB50C6
:1021200004DF060EDB501200090EDB500A0DF350DF
:10213000DF24D00FE76E090EE7CFDBFF7FEF0FF054
:10214000DB50F36E050EADEF0FF0F70EDBCF00F0B6
:10215000F80EDBCF01F01200DFCFE6FF89EF0FF0C2
:1021600028DF030EECDE2EEF10F0DBEC0AF0E55278
:10217000E552E552E55200091200BDDEEE50EFCF08
:10218000EAFFE96E010E1200130EDB50F36E040E2F
:10219000ADEF0FF0040EDB50F36E090EADEF0FF054
:1021A000DBCFE6FF89EF0FF0E76E050EE7CFDBFF31
:1021B00012008BDFACEF10F0DBCFE6FF86DFB5EF70
:1021C00010F0D950F90FE96EFF0E7AEF10F0E96EBA
:0821D000000EDA20EA6E120095
:0821D800D8CFE4FFE0CFE4FFE3
:1021E000E46EDACFE4FFE2CFDAFFE9CFE4FFEACF33
:1021F000E4FFE652F2A202D0A5D802D09EB6D1D812
:10220000E552E5CFEAFFE5CFE9FFE5CFDAFFE5509C
:10221000E5CFE0FFE5CFD8FF1000E66A010EE66EDD
:10222000050EE66E39EC2AF0E552E552E552120051
:10223000070EB46E000E886E876E866E856E846E95
:10224000836E826E816E806E916E906E8F6E8E6EDA
:102250008D6E8C6E8B6E8A6E896E2F0E926E936869
:102260009C0E946E956A966A9768040E986E0E0E90
:102270009A6E9968C16AF19EB0989C8EA26A9F6A14
:10228000A06A9D6AA36AA56AC8DF9F86D08E9E96C3
:102290009D869382F06AF288F09EF098F192F09A0F
:1022A000F16AF28CF28E1200D9CFE6FFE1CFD9FFAE
:1022B000E652BEDF0101C097C0990101840EFD6F97
:1022C000010EFE6FDF6A100EDF5C0AE2DF50EA6A81
:1022D000FD25E96EFE51EA227F0EEF6EDF2AF3D76D
:1022E00001019D6B010E9E6FC20E9F6F0101C085A3
:1022F0000101A26BA36B0101806B826B836B010EEA
:10230000D56E320ED76ECF0ED66ED59E800EE66E8F
:10231000010EE66E8BD8E552E5520101C093800EA6
:10232000E66E010EE66E82D8E552E5520101C093D9
:10233000E552E552E7CFD9FF12008282808894925D
:1023400092981200F2920101200EF96F9F8601010E
:10235000C0A906D00101E00EF66F000EF76F05D0A0
:102360000101C00EF66F000EF76F0101C0A1C07928
:10237000C0A706D00101800EF46F000EF56F05D0E6
:102380000101A00EF46F000EF56FC9CFFAF1F4C190
:10239000E9FFF5C1EAFFF42B000EF523EF50C96EFB
:1023A00012009E96C9CFFAF10101F951000823E20B
:1023B000F6C1E9FFF7C1EAFFF62B000EF723FAC1D9
:1023C000EFFFF4C1E9FFF5C1EAFFF42BF523EFCFEE
:1023D000FAF1FAC1C9FFF907F9510CE10101020E46
:1023E0009E6F0101C093C081320ED76ECF0ED66EA4
:1023F000F294D58E01D0C96A1200D9CFE6FFE1CFA1
:10240000D9FF0101C0A10ED0FD0EDBCFE6FFFE0E0D
:10241000DBCFE6FF88EC21F0E552E5529D96010105
:10242000C0919D86E552E7CFD9FF1200D9CFE6FFD4
:10243000E1CFD9FF0101C0B332D0FD0EDBCFE9FF00
:10244000FE0EDBCFEAFF1E0EE926000EEA22EF5059
:10245000020809E1FD0EDBCFE6FFFE0EDBCFE6FF53
:1024600069D8E552E552FD0EDBCFE9FFFE0EDBCF6A
:10247000EAFF150EE926000EEA22EF9EFD0EDBCFE5
:10248000E6FFFE0EDBCFE6FFF6EC20F0E552E5526C
:102490009D960101C077C0839D8601019D2BE55269
:1024A000E7CFD9FF12009D960101C0919D861200D1
:1024B000D9CFE6FFE1CFD9FF00012E6BD950FD0F38
:1024C000E96EFF0EDA20EA6E010EEE1801E1ED5022
:1024D00002E12E8101D0BA6AD950FB0FE96EFF0EDE
:1024E000DA20EA6E010EEE1801E1ED5002E12E83D2
:1024F00001D0B76AD950F90FE96EFF0EDA20EA6E03
:10250000010EEE1801E1ED5002E12E8501D0736A53
:10251000D950F70FE96EFF0EDA20EA6E010EEE18C1
:1025200001E1ED5002E12E8701D0706AE552E7CF5C
:10253000D9FF1200D9CFE6FFE1CFD9FFFD0EDBCFE7
:10254000E9FFFE0EDBCFEAFF1C0EE926000EEA22B1
:10255000EF6AFD0EDBCFE9FFFE0EDBCFEAFF170EC1
:10256000E926000EEA22EF6AC6AE0ED0C69EFD0E28
:10257000DBCFE9FFFE0EDBCFEAFF170EE926000EE8
:10258000EA22010EEF6E22D0F150800B10E0F250E3
:10259000080B0DE0FD0EDBCFE9FFFE0EDBCFEAFFFF
:1025A000170EE926000EEA22020EEF6E0FD0F0A6FB
:1025B0000DD0909EFD0EDBCFE9FFFE0EDBCFEAFFD4
:1025C000170EE926000EEA22030EEF6E250EC61442
:1025D000250819E0FD0EDBCFE9FFFE0EDBCFEAFF99
:1025E0001C0EE926000EEA22010EEF6EFD0EDBCF77
:1025F000E9FFFE0EDBCFEAFF170EE926000EEA2206
:10260000C6CFEFFF80D1C55019E0FD0EDBCFE9FF4B
:10261000FE0EDBCFEAFF1C0EE926000EEA22020EB8
:10262000EF6EFD0EDBCFE9FFFE0EDBCFEAFF170EEC
:10263000E926000EEA22C5CFEFFF65D1D0BE19D042
:10264000FD0EDBCFE9FFFE0EDBCFEAFF1C0EE92615
:10265000000EEA22030EEF6EFD0EDBCFE9FFFE0E49
:10266000DBCFEAFF170EE926000EEA22D0CFEFFFFC
:102670004AD19DB619D0FD0EDBCFE9FFFE0EDBCFB0
:10268000EAFF1C0EE926000EEA22040EEF6EFD0E94
:10269000DBCFE9FFFE0EDBCFEAFF170EE926000EC7
:1026A000EA229DCFEFFF2FD19C5019E0FD0EDBCF2A
:1026B000E9FFFE0EDBCFEAFF1C0EE926000EEA2240
:1026C000050EEF6EFD0EDBCFE9FFFE0EDBCFEAFF5E
:1026D000170EE926000EEA229CCFEFFF14D1080E58
:1026E0009F5C19E0FD0EDBCFE9FFFE0EDBCFEAFFBA
:1026F0001C0EE926000EEA22060EEF6EFD0EDBCF61
:10270000E9FFFE0EDBCFEAFF170EE926000EEA22F4
:102710009FCFEFFFF8D0A25019E0FD0EDBCFE9FF0D
:10272000FE0EDBCFEAFF1C0EE926000EEA22070EA2
:10273000EF6EFD0EDBCFE9FFFE0EDBCFEAFF170EDB
:10274000E926000EEA22A2CFEFFFDDD0A55019E066
:10275000FD0EDBCFE9FFFE0EDBCFEAFF1C0EE92604
:10276000000EEA22080EEF6EFD0EDBCFE9FFFE0E33
:10277000DBCFEAFF170EE926000EEA22A5CFEFFF16
:10278000C2D0100EF214100819E0FD0EDBCFE9FFE5
:10279000FE0EDBCFEAFF1C0EE926000EEA22090E30
:1027A000EF6EFD0EDBCFE9FFFE0EDBCFEAFF170E6B
:1027B000E926000EEA22F2CFEFFFA5D0470EF11472
:1027C00019E0FD0EDBCFE9FFFE0EDBCFEAFF1C0EAA
:1027D000E926000EEA220A0EEF6EFD0EDBCFE9FFBE
:1027E000FE0EDBCFEAFF170EE926000EEA22F1CF3C
:1027F000EFFF89D0C00EF01419E0FD0EDBCFE9FF2A
:10280000FE0EDBCFEAFF1C0EE926000EEA220B0EBD
:10281000EF6EFD0EDBCFE9FFFE0EDBCFEAFF170EFA
:10282000E926000EEA22F0CFEFFF6DD092A819D072
:10283000FD0EDBCFE9FFFE0EDBCFEAFF1C0EE92623
:10284000000EEA220C0EEF6EFD0EDBCFE9FFFE0E4E
:10285000DBCFEAFF170EE926000EEA2292CFEFFF48
:1028600052D093B019D0FD0EDBCFE9FFFE0EDBCFC7
:10287000EAFF1C0EE926000EEA220D0EEF6EFD0E99
:10288000DBCFE9FFFE0EDBCFEAFF170EE926000ED5
:10289000EA2293CFEFFF37D03E0E94141C0819E0C4
:1028A000FD0EDBCFE9FFFE0EDBCFEAFF1C0EE926B3
:1028B000000EEA220E0EEF6EFD0EDBCFE9FFFE0EDC
:1028C000DBCFEAFF170EE926000EEA2294CFEFFFD6
:1028D0001AD097BE18D0FD0EDBCFE9FFFE0EDBCF7E
:1028E000EAFF1C0EE926000EEA220F0EEF6EFD0E27
:1028F000DBCFE9FFFE0EDBCFEAFF170EE926000E65
:0E290000EA2297CFEFFFE552E7CFD9FF120092
:02290E00D9CF1F
:10291000E6FFE1CFD9FF040EE12602013C510BE1B5
:10292000F6D8DF6EDF0404E10201010E3C6F03D034
:10293000DF50010800E2E0DAE76E010EE7CFDBFFCF
:10294000DB5000081AE2030EDB6A010EDB50F36E67
:10295000030EDBCFF4FFF350F45C0CE2D1DAE76E48
:10296000020EE7CFDBFFDBCFE6FF10D8E552030E08
:10297000DB2AEBD70201436B03D00201010E436F48
:10298000D9CFE1FFE552E7CFD9FF1200D9CFE6FF5B
:10299000E1CFD9FF02014451060A01E18FD0030AB9
:1029A00068E0060A34E0010A25E0030A01E0ABD042
:1029B000FE0EDB50006E016AFF0E001801E10150AF
:1029C00003E1020E446F15D0FE0EDB50410807E113
:1029D0000101020EEC6F0201050E446F0AD0FE0EDB
:1029E000DB504E0806E10101020EEC6F0201060EFB
:1029F000446F89D0FE0EDB50540806E10101EB6BF9
:102A00000201030E446F02D0010E446F7CD001011D
:102A1000EB51006E016A080E005C000E01580AE2DC
:102A2000EB51EA6AC90FE96E010EEA22FE0EDBCF16
:102A3000EFFFEB2BEB51006E016A080E001801E16D
:102A4000015016E1C9C1C1F1CAC1C2F1CBC1C3F184
:102A5000CCC1C4F1CDC1C5F1CEC1C6F1CFC1C7F162
:102A6000D0C1C8F102013D2B000E3E23010E446F80
:102A70004AD0020E0101EC5D06E1FE0EDB50430878
:102A800002E1EC2B1AD0030EEC5D06E1FE0EDB50EA
:102A90004B0802E1EC2B11D0040EEC5D0BE1FE0EB5
:102AA000DB500D0807E102013F2B000E4023010E11
:102AB000446F03D00201010E446F25D0020E0101C4
:102AC000EC5D06E1FE0EDB50430802E1EC2B1AD070
:102AD000030EEC5D06E1FE0EDB504B0802E1EC2B31
:102AE00011D0040EEC5D0BE1FE0EDB500D0807E18A
:102AF0000201412B000E4223010E446F03D002015C
:102B0000010E446F00D0E552E7CFD9FF1200D9CFB4
:102B1000E6FFE1CFD9FFE6520201450507E18BD977
:102B2000050EE66E94D9E5520201456B46050DE1AE
:102B3000466B0101EE6B010EED6FEF6BF06BF16B0D
:102B400002013F6B406B416B426B0101EE0529E1D5
:102B50000201010E3F5D000E405905E30101EE6BDD
:102B6000EF6BF06B1DD0010E415D000E425904E386
:102B70000101ED05F16F14D001010A0EEF5D000EA9
:102B8000F0590BE3800EED25006E016A000E012264
:102B90000006015A00C0F1F103D0EF2B000EF02324
:102BA0000AD102013F6B406B416B426B0101ED5159
:102BB000120A01E1FDD0030A01E1E3D0010A01E1BB
:102BC000D6D01F0A01E1C6D0010A01E1B6D0030A3E
:102BD00001E1A6D0010A01E196D0070A01E186D001
:102BE000010A01E178D0030A69E0010A5AE00F0AFC
:102BF0004BE0010A3CE0030A2DE0010A1EE0070A4F
:102C00000FE0010A09E0030A01E0D5D014D901015F
:102C1000020EED6FEE6BCFD0030EED6FEE6BCBD0EF
:102C2000800EE66E290EE66E49D9E552E5520101A5
:102C3000040EED6F010EEE6FBED0200EE66E130E89
:102C4000E66E3CD9E552E5520101050EED6F010E2D
:102C5000EE6FB1D0840EE66E2D0EE66E2FD9E552E2
:102C6000E5520101060EED6F010EEE6FA4D0800E4D
:102C7000E66E2A0EE66E22D9E552E5520101070EF4
:102C8000ED6F010EEE6F97D0200EE66E2B0EE66E06
:102C900015D9E552E5520101080EED6F010EEE6FF8
:102CA0008AD0840EE66E2D0EE66E08D9E552E55206
:102CB0000101090EED6F010EEE6F7DD0200EE66E64
:102CC000120EE66EFBD8E552E55201010A0EED6FD9
:102CD000010EEE6F70D0E66AE66AF0D8E552E55272
:102CE00001010B0EED6F010EEE6F65D0800EE66EEA
:102CF000010EE66EE3D8E552E55201010C0EED6FD0
:102D0000010EEE6F58D0800EE66E020EE66ED6D83B
:102D1000E552E55201010D0EED6F010EEE6F4BD045
:102D2000640EE66E030EE66EC9D8E552E552010167
:102D30000E0EED6F010EEE6F3ED0010EE66E060E2A
:102D4000E66EBCD8E552E55201010F0EED6F010EA3
:102D5000EE6F31D0010EE66E100EE66EAFD8E55282
:102D6000E5520101100EED6F010EEE6F24D0010E41
:102D7000E66E8BD8E5520101110EED6F010EEE6F7C
:102D80001AD0800EE66E6A0EE66E1A0EE66E0F0E12
:102D9000E66E6E0EE66E5A0EE66E1BD8F56E060EE9
:102DA000E15EF5500101120EED6F010EEE6F03D0E2
:102DB000010EF16F00D0F151000803E20201010E93
:102DC000466F0101F15100D0E552E552E7CFD9FF3E
:102DD0001200D9CFE6FFE1CFD9FF540EE66E94D8AA
:102DE000E552430EE66E90D8E552060EE66E8CD89C
:102DF000E552FE0EDBCFE6FF87D8E552FD0EDBCFB6
:102E0000E6FF82D8E552FC0EDBCFE6FF7DD8E55227
:102E1000FB0EDBCFE6FF78D8E552FA0EDBCFE6FFFC
:102E200073D8E552F90EDBCFE6FF6ED8E552E552D6
:102E3000E7CFD9FF12000D0EE66E66D8E5521200FC
:102E400002013C6B120002013C5100D01200D9CFAC
:102E5000E6FFE1CFD9FF520EE66E56D8E5524D0E91
:102E6000E66E52D8E552200EE66E4ED8E552FE0EC2
:102E7000DB50300FE66E48D8E5520D0EE66E44D8B2
:102E8000E552E552E7CFD9FF1200D9CFE6FFE1CFF7
:102E9000D9FF4E0EE66E38D8E552460EE66E34D8AF
:102EA000E552010EE66E30D8E552FE0EDBCFE6FFAE
:102EB0002BD8E552E552E7CFD9FF1200D9CFE6FF74
:102EC000E1CFD9FF430EE66E1FD8E552520EE66EF3
:102ED0001BD8E552020EE66E17D8E552FE0EDBCF88
:102EE000E6FF12D8E552FD0EDBCFE6FF0DD8E55226
:102EF000E552E7CFD9FF1200DAEC22F000D0120041
:102F000010EC23F000D01200D9CFE6FFE1CFD9FFBB
:102F1000FE0EDBCFE6FF57EC23F0E552E552E7CF9C
:102F2000D9FF1200CAEC22F000D01200EAEC22F025
:102F300000D01200D9CFE6FFE1CFD9FFFE0EDBCFE4
:102F4000E6FF36EC23F0E552E552E7CFD9FF120059
:102F50003E9E08D03E9E36AE05D0356C361EE86AE1
:102F600036223E8E36C030F035C02FF0426A416ABC
:102F70008E0E316E326A40EF19F03C7E3E6A7CEC78
:102F800019F094EC19F03EB624EF19F03EA20AD0E5
:102F90003EAA03D03EBE24EF19F03EA430EF19F054
:102FA0002DEF19F03EAA05D03EAC30EF19F02DEF11
:102FB00019F03EA00AD03EA808D03EBE04D03EA4E0
:102FC00002D039EF19F03DEF19F0416A326A3C50F6
:102FD000375C406E10E334C042F035C02FF036C08D
:102FE00030F037C03FF039C034F03AC035F03BC064
:102FF00036F03E3A09D039C042F03AC02FF03BC01B
:1030000030F03CC03FF0406C3E9E3EBC3E8E3FC028
:1030100031F03EB06CEF19F01A0E40606CEF19F011
:10302000316A376A3EA408D0346C351E361E371E0E
:10303000E86A3522362237223EAC08D0426C2F1E79
:10304000301E311EE86A2F2230223122336A40526C
:1030500007E037343632353234323332402EF9D746
:103060003450422635502F223650302237503122EC
:1030700033C041F03E9E31AE0BD0416C421E2F1E3C
:10308000301E311EE86A42222F22302231223E8E2B
:1030900031A006D0D88030322F32423241323F2A1E
:1030A0003FC031F040EF19F03E6A7CEC19F094EC2F
:1030B00019F03EB624EF19F03EA205D03EB824EF39
:1030C00019F02BEF19F03EAA05D03EB024EF19F00D
:1030D0002BEF19F03EB002D03EA802D037EF19F026
:1030E000326A3C503724316EE86A32227E0E315EFD
:1030F000E86A325A416A426A2F6A306A3B503602A5
:10310000F4CF30F0F3CF2FF03A503602F35042268E
:10311000F4502F22000E30223B503502F35042264D
:10312000F4502F22000E302239503602F35041263F
:10313000F4504222000E2F2230223A503502F35032
:103140004126F4504222000E2F2230223B503402FE
:10315000F3504126F4504222000E2F2230223950E3
:103160003502F4504126000E42222F2230223A50DE
:103170003402F4504126000E42222F22302240EF2A
:1031800019F03D6AE86A3BAECEEF18F0386C391E94
:103190003A1E3B1E39223A223B223D1E36AED9EF63
:1031A00018F0336C341E351E361E3422352236227A
:1031B0003D1E9EEC2AF036BEF0EF18F03DAE000C3E
:1031C000336C341E351E361EE86A34223522362210
:1031D0002F6C301E311E321E302231223222000C62
:1031E0003DBEE0EF18F03E88FF0C3E6A7CEC19F023
:1031F0003EB6FFEF18F03EA20ED03EB405D07F0ED3
:10320000366EFF0E356E1FD0800E366E356A1BD0BF
:10321000366A356A18D03EB0FBD78F0E3760EDD7CF
:103220007E0E3764F5D78E0E375C05E0D8903632C7
:103230003532372AF8D73EA406D0356C361EE86AF8
:10324000362236AEE5D712007F0E376EFF0E366E91
:10325000356E346E12007F0E3EBEFF0E376E02D00A
:103260007F0E376E800E366E356A346AF3D73EAE07
:1032700004D0800E376E366AF7D7376A366AF4D7CD
:1032800030502F1042104110F8E032BEF0D730BE5F
:103290000CD031503210EBE0D890413642362F3608
:1032A00030363106D8A03206F2D73250D4E1312878
:1032B000D2E041AE11D07F0E411402E142A00CD009
:1032C000422AE86A2F22302207E3D88030322F3298
:1032D0004232312A3128BFE03150C9E042C034F0D7
:1032E0002FC035F03034366E3130376E3632379E7F
:1032F0003EBE378E2AEF19F03636373602E33E846B
:103300003E7E06E13E80376A366A356A346A1200CC
:10331000372803E0D88036321200D890363202E1E6
:103320003E8212003E8612003B363C3602E33E8C63
:103330003E7E06E13E883C6A3B6A3A6A396A120080
:103340003C2803E0D8803B321200D8903B32EAE1BF
:103350003E8A12003D6A3BAEB3EF19F03A6C3B1E59
:10336000E86A3B223D1E36AEBBEF19F0356C361EC7
:10337000E86A36223D1EE1EC2AF036BECBEF19F0AA
:103380003DAE000C356C361EE86A3622316C321EBA
:10339000E86A3222000C3DBEC2EF19F03E88FF0CF5
:1033A000D9EC19F03EB6000C3EB0000C3EA4000C67
:1033B000010C3E6A7CEC19F094EC19F03EB6120058
:1033C0003EAE08D03EA004D03EA802D03E801200FF
:1033D0003E9012003C50375C0BE13B50365C08E1FC
:1033E0003A50355C05E13950345C02E13E80120010
:1033F000D8A002D03E8E10D037503CC037F03C6E83
:1034000036503BC036F03B6E35503AC035F03A6E20
:10341000345039C034F0396E3C50375C10E0FF0F47
:1034200009E03E903EB403D03EAE3E8412003EAE74
:103430003E9412003C2AD8903B323A32393239500D
:10344000345E3A50355A3B50365A36BEEAD7D89099
:10345000343635363636372EF8D7C8D736C042F030
:1034600035C041F035503A02F4CF34F0F3CF33F0A9
:1034700036503B02F4CF36F0F3CF35F03A02F3503A
:103480003426F4503522E86A362241503B02F3508C
:103490003426F4503522E86A36223BAE54EF1AF057
:1034A0004150355E4250365A42AE000C3A50355EBD
:0634B0003B50365A000CEF
:0A34B60081B405D0010EF36EF46A34
:1034C00027D026D081B605D0020EF36EF46A20D044
:1034D0001FD081B805D0030EF36EF46A19D018D04E
:1034E00081BA05D0040EF36EF46A12D011D081BCFB
:1034F00005D0050EF36EF46A0BD00AD081BE05D05C
:10350000060EF36EF46A04D003D0F36AF46A00D0B6
:103510001200D9CFE6FFE1CFD9FFFD0EDBCF35F0AA
:10352000FE0EDBCF36F0050E351801E1365038E0DF
:10353000040E351801E1365027E0030E351801E17D
:10354000365016E0010E351801E136500FE0020E3C
:10355000351801E1365002E0F3D92AD00201635157
:1035600003E0646B656B636B29D822D0D2D820D07E
:103570000201635107E0646B656B636B010E02012E
:103580006A6F6B6B60D814D00201635107E0646B03
:10359000656B636B010E02016A6F6B6BE2D808D03A
:1035A0000201635103E0646B656B636BAFD900D0BC
:1035B00042EC0AF0E552E7CFD9FF120087EC14F095
:1035C00030EC26F00AEC09F043EC09F00101C80EDA
:1035D000A66F7F0EAA6F0201642B000E65230F0EEB
:1035E00065AF02D0D89003D0645D000E655911E339
:1035F000280E65AF02D0D89003D0645D000E6559E7
:1036000008E20F0EE66EE66A54EC09F0E552E55268
:1036100019D0280E65AF02D0D89003D0645D000E9B
:10362000655910E3280E646F656B01018A6B010117
:103630007F0EA66FAA6F0F0EE66EE66A54EC09F0D5
:10364000E552E552120087EC14F030EC26F00AEC5B
:1036500009F043EC09F0020E02016A1901E16B5115
:103660001AE0010E6A1901E16B5101E051D001012C
:103670007F0EA66FAA6F0201642B000E6523320E27
:10368000641901E1655106E1646B656B020E02018C
:103690006A6F6B6B3DD00101C80EA66F7F0EAA6FDB
:1036A0000201642B000E65230F0E65AF02D0D89087
:1036B00003D0645D000E655911E3280E65AF02D09A
:1036C000D89003D0645D000E655908E20F0EE66ED7
:1036D000E66A54EC09F0E552E55219D0280E65AFC0
:1036E00002D0D89003D0645D000E655910E3280E17
:1036F000646F656B01018A6B01017F0EA66FAA6F73
:103700000F0EE66EE66A54EC09F0E552E55200D081
:1037100012000AEC09F043EC09F087EC14F030ECED
:1037200026F08F0EE66EEDEC25F0E552F3CF00F0BB
:10373000F4CF01F06C0E005C020E015804E20101AE
:10374000980E896F0DD001017F0E896F02015151D2
:1037500007E0140EE66EE66A54EC09F0E552E55215
:10376000120087EC14F030EC26F00AEC09F043EC80
:1037700009F0060E02016A1901E16B5101E1B7D0AF
:10378000050E6A1901E16B5101E177D0040E6A1947
:1037900001E16B515AE0030E6A1901E16B513CE003
:1037A000020E6A1901E16B511FE0010E6A1901E175
:1037B0006B5101E0AAD001017F0EAA6FC80EA66F5F
:1037C0000201642B000E6523230E65AF02D0D89052
:1037D00003D0645D000E655906E3646B656B020EF1
:1037E00002016A6F6B6B91D001017F0EAA6FA66F09
:1037F0000201642B000E6523050E65AF02D0D89040
:1038000003D0645D000E655906E3646B656B030EBF
:1038100002016A6F6B6B79D00101C80EAA6F7F0E2F
:10382000A66F0201642B000E6523190E65AF02D04E
:10383000D89003D0645D000E655906E3646B656B38
:10384000040E02016A6F6B6B60D001017F0EAA6FDC
:10385000A66F0201642B000E6523050E65AF02D032
:10386000D89003D0645D000E655906E3646B656B08
:10387000050E02016A6F6B6B48D001017F0EAA6FC3
:10388000C80EA66F0201642B000E65230F0E65AFF4
:1038900002D0D89003D0645D000E655911E3230E69
:1038A00065AF02D0D89003D0645D000E655908E280
:1038B0000F0EE66EE66A54EC09F0E552E55216D0BA
:1038C000230E65AF02D0D89003D0645D000E655919
:1038D0000DE3646B656B0F0EE66EE66A54EC09F05F
:1038E000E552E552060E02016A6F6B6B0ED00101C4
:1038F0007F0EAA6FA66F0F0EE66EE66A54EC09F013
:10390000E552E55201018A6B00D0120001017F0EE1
:10391000AA6FC80EA66F0201642B000E6523370E36
:1039200065AF02D0D89003D0645D000E655907E3FF
:10393000370E646F656B01017F0EAA6FA66F1200D0
:1039400001017F0EAA6FA66F0101846F856F866FDC
:0E395000876F886F896F8A6F8B6F8C6F120084
:02395E00D9CFBF
:10396000E6FFDACFE6FFE1CFD9FFE2CFDAFF240EA0
:10397000E12402E3E168E652E16ED950FA0FE96E04
:10398000FF0EDA20EA6E020EEECFDBFF030EEECF63
:10399000DBFF040EEECFDBFF050EEECFDBFFE8D939
:1039A000F2D9A4EC27F0F56E060EE15C02E2E16AC2
:1039B000E552E16EF550E76E0D0EE7CFDBFFDB5011
:1039C000800815E0A0D9396A3A6A3B6A3C6A00C0AF
:1039D00034F001C035F002C036F003C037F0D0EC4F
:1039E00019F0010A10E1210E0201686F696B020EE5
:1039F000DB68030EDB68040EDB687F0EF36E050EDA
:103A0000F3CFDBFF68D10D0EDB50050B01E063D176
:103A10000A0EDBCF00F00B0EDBCF01F0830E002689
:103A2000FF0E012200C0DEFF01C0DDFFD950060FEE
:103A300065D976D9DF50010B0FE0DF06010E01E2F8
:103A4000DB06D950180F5AD9D890EF36010EEB3655
:103A5000020EEB36030EEB36D9CFE9FFDACFEAFFE1
:103A6000020E3A6E3B6AEECF35F0EDCF36F0AAEC9F
:103A700019F035C0EEFF36C0EDFF140EDB6A150EEF
:103A8000DB6A160EDB6A170EDB6A1C0EDB6A1D0E84
:103A9000DB6A1E0EDB6A010EF36E1F0EF3CFDBFF37
:103AA000010EF36E0E0EF3CFDBFF0F0EDB6A0E0E70
:103AB000DBCF00F00F0EDBCF01F0D890015004E611
:103AC0001A0E005C000E015801E39AD0180EDBCFED
:103AD00000F0190EDBCF01F01A0EDBCF02F01B0E47
:103AE000DBCF03F0010E1F0B07E0D8900036013644
:103AF00002360336E806F9E1180E00C0DBFF190EA6
:103B000001C0DBFF1A0E02C0DBFF1B0E03C0DBFF90
:103B1000140EDBCF08F0150EDBCF09F0160EDBCF4D
:103B20000AF0170EDBCF0BF0010E1F0B07E0D89049
:103B3000083609360A360B36E806F9E1D9501C0F6B
:103B4000DDD80850EE24046E0950EE20056E0A50B0
:103B5000EE20066E0B50EE20076ED950180FCED80F
:103B60000450EE5C006E0550EE58016E0650EE58A3
:103B7000026E0750EE58036E200E00C0DBFF210ED0
:103B800001C0DBFF220E02C0DBFF230E03C0DBFF00
:103B9000200EDBCF34F0210EDBCF35F0220EDBCF51
:103BA00036F0230EDBCF37F0000E3718E8AE02D028
:103BB000373409D0000ED8803454000E3554000E2E
:103BC0003654000E375411E2D950200F97D8A8D898
:103BD000D6D81C0EDB50EE121D0EDB50EE121E0E60
:103BE000DB50EE121F0EDB50EE12D9501C0F86D8A0
:103BF000ADD80E0EDB2A0F0E01E259D7DB2A57D7BC
:103C0000C7D8100E00C0DBFF110E01C0DBFF180E7D
:103C1000DBCF35F0190EDBCF36F0120E35C0DBFFEF
:103C2000130E36C0DBFFABD891D8D950100F66D831
:103C3000EE50ED1012E0D950120F60D8EE50ED109A
:103C400006E1A6D8005001100210031006E097D834
:103C5000EE2A000EEE22EE22EE220C0EDB6A8FD848
:103C6000060EEECFDBFF070EEECFDBFF080EEECF2A
:103C7000DBFF090EEECFDBFF7E0EF36E0A0EF3CFF5
:103C8000DBFF0B0EDB6AD950020FE66E000EDA2066
:103C9000E66E6ED832EC28F0E552E552E552E55278
:103CA000DECFE6FFDDCFE6FF6ED80AEC27F0F56E3B
:103CB000060EE15C02E2E16AE552E16EF550020EA9
:103CC00033C0DBFF030E34C0DBFF040E35C0DBFF67
:103CD000050E36C0DBFF17D800C033F001C034F04A
:103CE00002C035F003C036F0D9CFE1FFDACFE2FFF2
:103CF000E552E5CFDAFFE7CFD9FF1200E96E000EFB
:103D0000DA20EA6E1200020EDBCF00F0030EDBCFEA
:103D100001F0040EDBCF02F0050EDBCF03F0120042
:103D2000180EEECFDBFF190EEECFDBFF1A0EEECF33
:103D3000DBFF1B0EEECFDBFF1200EECFE6FFEECF78
:103D4000E6FFEECFE6FFEFCFE6FF1200D890030EBE
:103D5000EB32020EEB32010EEB32EF321200EE507C
:103D60000016EE500116EE500216EE500316120029
:103D7000D950060FE66E000EDA20E66E1200D9501A
:103D8000140F7EEF1EF0D950020FB8DF9DEF1EF02A
:103D9000010E006E016A026A036AF1DFAFEF1EF0E6
:103DA000D9CFE6FFE1CFD9FFE652C80E02012D6F51
:103DB0002E6B010E316F326F040E2F6F306BDF6A86
:103DC0003151DF5C10E2DF50040DF3CFE9FFF4CF97
:103DD000EAFF330EE926020EEA22EE6AEE6AEE6A86
:103DE000EE6ADF2AEDD7396B3A6B3B6B010EC26E80
:103DF000C16A860EC06E9F9C9E9C9D8C2DC2E6FF64
:103E00002EC2E6FF14D8E552E552E552E552E7CF5F
:103E1000D9FF1200D9CFE6FFE1CFD9FFE6525FD834
:103E20009D9CC26AE552E552E7CFD9FF1200D9CF77
:103E3000E6FFE1CFD9FFFD0EDBCF35F0FE0EDBCF85
:103E400036F0355002E1190E36183BE0800E351879
:103E500002E10C0E361830E0400E351802E1060E75
:103E6000361825E0200E351802E1030E36181AE048
:103E7000900E351802E1010E36180FE0C80E351805
:103E800001E1365005E06A0ECA6EDD0ECB6E1ED023
:103E90006A0ECA6EDD0ECB6E19D0520ECA6E8C0E33
:103EA000CB6E14D0520ECA6E450ECB6E0FD0510E93
:103EB000CA6E8C0ECB6E0AD0510ECA6E450ECB6EFA
:103EC00005D0500ECA6E8C0ECB6E00D0CC6A9F927D
:103ED0009E929D82CA84E552E7CFD9FF12009D923F
:103EE000CA941200D9CFE6FFE1CFD9FF020EE12636
:103EF000FE0EDBCF00F002013151D880005412E3F6
:103F00009D9CFE0EDB04E96EEA6AD890E936EA363B
:103F1000370EE926020EEA22EECFDEFFEDCFDDFFFF
:103F20009D8C02D0DE6ADD6ADECF00F0DDCF01F0CD
:103F300000C0F3FF01C0F4FF00D0D9CFE1FFE5528C
:103F4000E7CFD9FF1200D9CFE6FFE1CFD9FFFD0EB1
:103F5000DBCF00F0FE0EDBCF01F0026A036A880EB1
:103F6000386E130E396E3A6A3B6A00C033F001C0F6
:103F700034F002C035F003C036F09AEC29F02FC0BF
:103F800000F030C001F031C002F032C003F0386AF6
:103F9000080E396E3A6A3B6A00C033F001C034F053
:103FA00002C035F003C036F0C1EC18F033C000F0A9
:103FB00034C001F035C002F036C003F000C0F3FF9A
:103FC00001C0F4FF00D0E552E7CFD9FF1200D9CFEE
:103FD000E6FFE1CFD9FFE6529D9CFFC1DFFF9D8C3C
:103FE000DF5000D0E552E552E7CFD9FF12009D9C8B
:103FF0000101FF6B9D8C1200C2821200D9CFE6FF37
:10400000E1CFD9FF050EE126C450DE6EDD6AD9CFBF
:10401000E9FFDACFEAFFEE50ED6EEF6AC350DE261D
:10402000000EDD22DECF00F0DDCF01F0026A036A70
:1040300002013B51040DF3CFE9FFF4CFEAFF330E49
:10404000E926020EEA220050EE260150EE2202502E
:10405000EE220350EE223B2B31513B5D04E33B6BE0
:10406000392B000E3A23020E3BC2DBFFDB50040D5E
:10407000020EF3CFDBFFDB80DB50C26E2F51395DC8
:1040800030513A5901E283D0030EDB6A040EDB6A39
:10409000030EDBCF00F0040EDBCF01F00201315143
:1040A000000101AE02D0D89003D0005C000E015890
:1040B0003AE2030EDBCFE9FF040EDBCFEAFFD89034
:1040C000E936EA36D890E936EA36330EE926020EAA
:1040D000EA22020132511F0BEECF00F0EECF01F0C9
:1040E000EECF02F0EECF03F007E0D89003320232B9
:1040F00001320032E806F9E1030EDBCFE9FF040EDE
:10410000DBCFEAFFD890E936EA36370EE926020E11
:10411000EA2200C0EEFF01C0EDFF030EDB2A040E11
:1041200001E3DB2AB5D7030EDB6A040EDB6A030E5C
:10413000DBCF00F0040EDBCF01F0020131510001B2
:1041400001AE02D0D89003D0005C000E01581AE2F4
:10415000030EDBCFE9FF040EDBCFEAFFD890E93690
:10416000EA36D890E936EA36330EE926020EEA221C
:10417000EE6AEE6AEE6AEE6A030EDB2A040E01E3D3
:10418000DB2AD5D70101FF2B0201396B3A6BD9CF5E
:0A419000E1FFE552E7CFD9FF12006E
:06419A00000EE96EEA6E62
:1041A0000400DAEC20F0EA2A080EEA5CD8A4D0EF8A
:1041B00020F01200EF6AE93EDAEF20F01200FF0E65
:1041C000E3CF21F021380F0B060FD8B2070F2A0FCB
:1041D000AD6E41EC25F021500F0B060FD8B2070F42
:1041E0002A0FAD6E41EC25F0000C1200EACF1CF056
:1041F000E9CF1DF0FF0EE3CFEAFFFE0EE3CFE9FFAC
:10420000C0A741D0EECFA0F0EECFA1F0EECFA2F04C
:10421000EECFA3F0EECFA4F0EECFA5F0EECFA6F058
:10422000EECFA7F0EECFA8F0EECFA9F0EECFAAF038
:10423000EECFABF0EECFACF0EECFADF0EECFAEF018
:10424000EECFAFF0EECFB0F0EECFB1F0EECFB2F0F8
:10425000EECFB3F0EECFB4F0EECFB5F0EECFB6F0D8
:10426000EECFB7F0EECFB8F0EECFB9F0EECFBAF0B8
:10427000EECFBBF0EECFBCF0EECFBDF0EECFBEF098
:10428000EECFBFF040D0EECF80F0EECF81F0EECF9A
:1042900082F0EECF83F0EECF84F0EECF85F0EECF5C
:1042A00086F0EECF87F0EECF88F0EECF89F0EECF3C
:1042B0008AF0EECF8BF0EECF8CF0EECF8DF0EECF1C
:1042C0008EF0EECF8FF0EECF90F0EECF91F0EECFFC
:1042D00092F0EECF93F0EECF94F0EECF95F0EECFDC
:1042E00096F0EECF97F0EECF98F0EECF99F0EECFBC
:1042F0009AF0EECF9BF0EECF9CF0EECF9DF0EECF9C
:104300009EF0EECF9FF01CC0EAFF1DC0E9FF120037
:10431000C0A11200EACF1CF0E9CF1DF0FF0EE3CFE1
:10432000EAFFFE0EE3CFE9FFC0A941D0C0C0EEFF17
:10433000C1C0EEFFC2C0EEFFC3C0EEFFC4C0EEFFBF
:10434000C5C0EEFFC6C0EEFFC7C0EEFFC8C0EEFF9F
:10435000C9C0EEFFCAC0EEFFCBC0EEFFCCC0EEFF7F
:10436000CDC0EEFFCEC0EEFFCFC0EEFFD0C0EEFF5F
:10437000D1C0EEFFD2C0EEFFD3C0EEFFD4C0EEFF3F
:10438000D5C0EEFFD6C0EEFFD7C0EEFFD8C0EEFF1F
:10439000D9C0EEFFDAC0EEFFDBC0EEFFDCC0EEFFFF
:1043A000DDC0EEFFDEC0EEFFDFC0EEFF40D0E0C0BC
:1043B000EEFFE1C0EEFFE2C0EEFFE3C0EEFFE4C0BF
:1043C000EEFFE5C0EEFFE6C0EEFFE7C0EEFFE8C09F
:1043D000EEFFE9C0EEFFEAC0EEFFEBC0EEFFECC07F
:1043E000EEFFEDC0EEFFEEC0EEFFEFC0EEFFF0C05F
:1043F000EEFFF1C0EEFFF2C0EEFFF3C0EEFFF4C03F
:10440000EEFFF5C0EEFFF6C0EEFFF7C0EEFFF8C01E
:10441000EEFFF9C0EEFFFAC0EEFFFBC0EEFFFCC0FE
:10442000EEFFFDC0EEFFFEC0EEFFFFC0EEFF1CC0C2
:10443000EAFF1DC0E9FF1200F2B412002E500F0A6D
:10444000D8B41200FF0EE3CF22F0FE0EE3CF23F02C
:10445000FD0EE3CF24F0FC0EE3CF25F0222A2EA0A0
:104460008D8E232A2EA28F80242A2EA48F86252A81
:104470002EA68F88266A276A286A296A6FEC22F09E
:10448000222E45EF22F02EA08D9E232E4AEF22F001
:104490002EA28F90242E4FEF22F02EA48F96000094
:1044A000252E55EF22F02EA68F980000262E5AEFCB
:1044B00022F02A900000272E5FEF22F02A920000BF
:1044C000282E64EF22F02A940000292E69EF22F0B2
:1044D0002A9691EC22F02B3E40EF22F01200D70EEC
:1044E0002B6E000000000000000087EC22F02B2E55
:1044F00071EF22F0D70E2B6E0000000000000000CC
:1045000087EC22F02B2E7CEF22F00000120000003E
:104510008AEF22F000000000000000000000000010
:104520001200030E2C6E00002C2E93EF22F01200CE
:10453000150EAF6EAC849D9A9D98AC98AC9E948EEF
:10454000AB9CAB96AB8AAB889F9A9D8A02016C6943
:104550006D69949CAC9CAC969F989D88AC8AAB8E00
:104560001200150E6F6E6C84A39AA3986C986C9EC3
:1045700098846B9C6B966B8A6B88A59AA38A0201C0
:104580006C696D6998926C9C6C96A598A3886C8AEE
:104590006B8E1200D9CFE6FFE1CFD9FFE6529D9A8C
:1045A00005C2DFFF9D8ADF5000D0E552E552E7CF1C
:1045B000D9FF1200D9CFE6FFE1CFD9FFE652A39A87
:1045C00011C2DFFFA38ADF5000D0E552E552E7CFEA
:1045D000D9FF1200D9CFE6FFE1CFD9FFE6520201A1
:1045E000025103E0000E17D016D00351EA6A000F03
:1045F000E96E010EEA22EFCFDFFF0507032B1F0E46
:1046000003179D9A0451035D02E1010E026F9D8A1A
:10461000016BDF5000D0E552E552E7CFD9FF120021
:10462000D9CFE6FFE1CFD9FFE65202010E5103E0F8
:10463000000E17D016D00F51EA6A400FE96E010E36
:10464000EA22EFCFDFFF11070F2B1F0E0F17A39AE0
:1046500010510F5D02E1010E0E6FA38A0D6BDF504A
:1046600000D0E552E552E7CFD9FF1200D9CFE6FFDF
:10467000E1CFD9FF0201085101E0FCD70B51EA6AF2
:10468000200FE96E010EEA22FE0EDBCFEFFF0C2BAE
:104690000B2B1F0E0B179D980B510A5D02E1010EAB
:1046A000086F9D88096BE552E7CFD9FF1200D9CF7B
:1046B000E6FFE1CFD9FF0201145101E0FCD7175109
:1046C000EA6A600FE96E010EEA22FE0EDBCFEFFF11
:1046D000182B172B1F0E1717A3981751165D02E101
:1046E000010E146FA388156BE552E7CFD9FF1200B6
:1046F0000201015102E09D9A19D00451EA6A000FAB
:10470000E96E010EEA22AECFEFFFABA203D0AB9869
:10471000AB88062BABB4072B052B042B1F0E0417FD
:104720000451035D02E1010E016F026B12000201F0
:104730000D5102E0A39A19D01051EA6A400FE96EB8
:10474000010EEA226ECFEFFF6BA203D06B986B884D
:10475000122B6BB4132B112B102B1F0E1017105193
:104760000F5D02E1010E0D6F0E6B12000201095187
:1047700002E09D9812D00A51EA6A200FE96E010EFC
:10478000EA22EF50AD6E0C070A2B1F0E0A170B51D1
:104790000A5D02E1010E096F086B1200020115515A
:1047A00002E0A39812D01651EA6A600FE96E010E7A
:1047B000EA22EF506D6E1807162B1F0E16171751B1
:1047C000165D02E1010E156F146B1200D9CFE6FFE2
:1047D000E1CFD9FF0201005101E110D0000506E14F
:1047E000FE0EDBCFE6FF42DFE55208D0020E005D91
:1047F00005E1FE0EDBCFE6FF5ADFE552E552E7CFDB
:04480000D9FF1200CA
:0C480400D8CFE4FFE0CFE4FFE46EDACF91
:10481000E4FFE2CFDAFFE9CFE4FFEACFE4FFF3CF32
:10482000E4FFF4CFE4FF00EE00F0180EE80403E329
:10483000EECFE4FFFBD7E652D9CFE6FFE1CFD9FFB9
:10484000E6529E50200B06E09D50200B03E078ECD2
:1048500023F056D0A450200B06E0A350200B03E019
:1048600097EC23F04DD09E50100B06E09D50100B9E
:1048700003E0B6EC23F044D0A450100B06E0A350A4
:10488000100B03E0CEEC23F03BD09E50020B07E070
:104890009D50020B04E09E92FCEC1FF031D09E5024
:1048A000400B07E09D50400B04E09E9CFEEC1FF087
:1048B00027D0F050020B05E0F050100B02E0F09210
:1048C0001FD0F050040B05E0F050200B02E0F094F4
:1048D00017D0F250010B07E0F250080B04E08150B2
:1048E000DF6EF2900DD09E50010B0AE09D50010B3F
:1048F00007E09E90ED0ECE6E850ECF6E06EC2BF08F
:10490000E552E552E7CFD9FFE55200EE17F0180E59
:10491000E80403E3E5CFEDFFFBD7E5CFF4FFE5CFF8
:10492000F3FFE5CFEAFFE5CFE9FFE5CFDAFFE5509A
:10493000E5CFE0FFE5CFD8FF100001017F0E8B6FC0
:104940008BC18AF18BC189F18BC188F18BC187F151
:104950008BC186F18BC185F18BC184F1936F93C1BB
:1049600092F193C191F193C190F193C18FF193C1F1
:104970008EF193C18DF193C18CF18C928D928C90BC
:104980008D908C968D968C948D948C9A8D9A8C9813
:104990008D988C9E91908C9C8D9C0101A1AD67D0CF
:1049A0000101C0A163D0A00EE66E010EE66EFDEC23
:1049B00011F0E552E5525BEC1AF0F3CF00F0F4CFC2
:1049C00001F000C0E6FF01C0E6FF89EC1AF0E552F5
:1049D000E5520101A651056AD00F046E070E0522AB
:1049E000AA5100010424026E000E0520036E7F0E02
:1049F000025E000E035A02C0E6FF03C0E6FF80EC31
:104A000004F0E552E552006E016AFE0ED8800056B1
:104A1000000E015600C084F10101A651036AD00FB7
:104A2000026E070E0322AA51046E056A0450025C4E
:104A3000006E05500358016E7F0E0026000E012205
:104A400000C0E6FF01C0E6FF80EC04F0E552E5524D
:104A50000101866F84C185F186C187F1800EE66E03
:104A6000010EE66E16EC12F0E552E55296D71200F2
:104A70001200D9CFE6FFE1CFD9FFE552E7CFD9FF4A
:024A8000120022
:0E4A82009EB802D0FDD7FCD71200D9CFE6FFB8
:104A9000E1CFD9FFFE0EDBCFE6FFDFEC20F0E552E1
:104AA0000D0EAD6EEEDFE552E7CFD9FF1200D9CF84
:104AB000E6FFE1CFD9FF0201D950FD0F576FFF0E7E
:104AC000DA20586F010EEA6A5725E96E5851EA223A
:104AD000EF50E66EDFEC20F0E55257C2E9FF58C216
:104AE000EAFFEF50E66EDFEC20F0E5520D0EAD6E02
:104AF000C8DFE552E7CFD9FF1200D9CFE6FFE1CFFB
:104B0000D9FF0201596B1A0E595D11E2FD0EDBCF80
:104B1000E9FFDB2AFE0EDBCFEAFF01E3DB2AEF50E1
:104B2000E66EDFEC20F0E5520201592BECD70D0EBA
:104B3000AD6EA7DFE552E7CFD9FF12000201A00E4C
:104B4000576F010E586F0101A05102015B6F5C6B42
:104B50005D515B1902E15E515C1918E00101C0A5CD
:104B600002D0C0950FD05DC2E6FFDFEC20F0E55229
:104B70005BC2E6FFDFEC20F0E5520D0EAD6E81DF8B
:104B80000101C0955BC25DF25CC25EF202015D2B69
:104B9000000E5E235E3504E25D51FF08000E5E5597
:104BA00002E25D6B5E6B1200150EE66E3C0EE66E69
:104BB0006CEC2AF0E552E552320EE66E43EC2BF037
:104BC000E5521200D9CFE6FFE1CFD9FFFE0EDBCFD1
:104BD0005AF2E552E7CFD9FF1200D9CFE6FFE1CF75
:104BE000D9FF020EE1260F0EE66EFE0EDB507F0BA4
:104BF000FE0BFD0BE66EF10EE66ED2EC29F0E552EF
:104C0000E552E5520A0EE66E61EC2BF0E55280ECBF
:104C10002BF007EC04F0000901E0FBD7C2EC2AF00E
:104C20007DEC2BF0C450026E02C003F0026AC35048
:104C300000010210006E03C001F000C0DEFF01C0E1
:104C4000DDFFDECF00F0DDCF01F000C0F3FF01C0DB
:104C5000F4FF00D0D9CFE1FFE552E7CFD9FF120032
:104C6000D9CFE6FFE1CFD9FF080EE126020154516A
:104C700002013D1904E10201555102013E1901E111
:104C8000C3D03DC254F23EC255F2140E0101C85DBC
:104C900001E2B3D0C151006E016A620E005E000EE7
:104CA000015A00C0DEFF01C0DDFFDECFE6FFDDCF31
:104CB000E6FFD80E006E560E016E026A00C0E6FFD7
:104CC00001C0E6FF02C0E6FF0EEC29F0F56E050E0E
:104CD000E15EF550DECF00F0DDCF01F0013404E2FB
:104CE00000500808000E015417E2DECF00F0DDCFBF
:104CF00001F0013404E200502308000E015406E2E2
:104D00000101BE0E886F0201516B05D001018D0EAD
:104D1000886F0201516B2AD0DECF00F0DDCF01F0A9
:104D2000D880015004E7F80E005CFF0E015818E22D
:104D3000DECF00F0DDCF01F0D880015004E7DD0EBA
:104D4000005CFF0E015806E20101380E886F020177
:104D5000516B05D00101780E886F0201516B06D0AE
:104D600001017F0E886F0201010E516F0101C251D6
:104D7000006E016A770E005E000E015A020E00C03E
:104D8000DBFF030E01C0DBFF020EDBCF00F0030EE2
:104D9000DBCF01F0013404E200500E08000E015494
:104DA00006E20101740E896F0201526B1AD0020EE5
:104DB000DBCF00F0030EDBCF01F0D880015004E719
:104DC000F20E005CFF0E015806E20101930E896F9E
:104DD0000201526B06D001017F0E896F0201010EA4
:104DE000526F42EC0AF00201525105E0515103E0CA
:104DF000010E536F01D0536B06D00201536B0101BA
:104E00007F0E896F886F00D0D9CFE1FFE552E7CFE1
:044E1000D9FF1200B4
:0C4E140094D8E1CFD9FFE2CFDAFF0C0EFA
:104E2000E12402E3E168E652E16ED950FA0FE96E3F
:104E3000FF0EDA20EA6E080EEECFDBFF090EEECF92
:104E4000DBFF0A0EEECFDBFF0B0EEECFDBFF77D8DA
:104E5000D950080FE96E000EDA20EA6EEECFE6FFB9
:104E6000EECFE6FFEECFE6FFEFCFE6FFA4EC27F0B4
:104E7000F56E060EE15C02E2E16AE552E16EF55084
:104E8000E76E070EE7CFDBFFDB50840B3AE1070E3E
:104E9000DB041AE1060EDB5006E0006A016A026AD2
:104EA000800E036E04D0006A016A026A036A080E6B
:104EB00000C0DBFF090E01C0DBFF0A0E02C0DBFFF2
:104EC0000B0E03C0DBFF1DD0F80EDBCF00F0F90E98
:104ED000DBCF01F0D950040FE96E000EDA20EA6E44
:104EE0000050EE260150ED22D950080FE66E000E5C
:104EF000DA20E66E24D832EC28F0E552E552E5528D
:104F0000E552080EDBCF00F0090EDBCF01F00A0EF0
:104F1000DBCF02F00B0EDBCF03F000C033F001C09B
:104F200034F002C035F003C036F0D9CFE1FFDACF5C
:104F3000E2FFE552E5CFDAFFE7CFD9FF1200D9CF84
:084F4000E6FFDACFE6FF1200E4
:084F4800D9CFE6FFDACFE6FF46
:104F5000E1CFD9FFE2CFDAFFE652006801687F0EA9
:104F6000026E036AD950FA0FE96EFF0EDA20EA6E7C
:104F7000EE500016EE500116EE500216EE500316DB
:104F80006AD800C0EEFF01C0EEFF02C0EEFF03C012
:104F9000EEFFFD0EDB50800B02E0010E01D0000E93
:104FA000E66E59D8060EE926000EEA22E552E750D1
:104FB000EF6EFC0EDBCF00F0FD0EDBCF01F0D890E2
:104FC00000360136FC0E00C0DBFFFD0E01C0DBFF2A
:104FD000DB50E66E40D8040EE926000EEA22E552C8
:104FE000E750EE6EED6AFD0EDB50006E016AFF0EBB
:104FF000001818E1015016E12ED8EECF00F0EECFE8
:1050000001F0EECF02F0EFCF03F0005001100210DC
:10501000031006E0210E0201686F696B800E0BD051
:10502000040E09D0FD0EDB5008E115D8EE6AEE6AD9
:10503000EE6AEE6A010EDF6E06D0020EDF6E0BD84E
:10504000EE52EE52EE8EDF50E552E552E5CFDAFF3A
:10505000E7CFD9FF1200F80EDBCFE9FFF90EDBCF67
:04506000EAFF120051
:0C506400D9CFE6FFDACFE6FFE1CFD9FF9D
:10507000E2CFDAFF5BD8013411E20050FE08000EE7
:1050800001540CE276D805E06CD8800EEE6EEE6826
:1050900047D067D8800EEE6E7F0E0ED047D8D890DE
:1050A000015004E6010E005C000E01580BE261D8CD
:1050B00005E057D8EE6A800EEE6E32D052D8EE6A16
:1050C000EE6A2ED047D8EECF00F0EECF01F0EECF53
:1050D00002F0EFCF03F032D800C0EEFF01C0EEFFC8
:1050E00002C0EEFF03C0EEFF21D80050010B05E027
:1050F00025D8020E3AD8EF8E04D020D8020E35D82B
:10510000EF9E14D8D8900132003218D8030E2DD853
:1051100000C0EFFF1AD804E011D8030E26D8EF8E96
:10512000E552E5CFDAFFE7CFD9FF120013D8040E1E
:105130001CD8EECF00F0EFCF01F01200FA0EDBCF5B
:10514000E9FFFB0EDBCFEAFF120004D8060E0DD8F4
:10515000EF501200FC0EDBCFE9FFFD0EDBCFEAFFC4
:105160001200ECDFEE6AEE6A1200E926000EEA2277
:0E5170001200220E0201686F696BA5EF28F095
:02517E001E0E03
:10518000F66E080EF76E000EF86E02010900F5507B
:105190004C6F0900F5504D6F03E14C6701D03DD0D5
:1051A0000900F550476F0900F550486F0900F550A8
:1051B000496F09000900F550E96E0900F550EA6EE3
:1051C000090009000900F5504A6F0900F5504B6FBE
:1051D00009000900F6CF4EF2F7CF4FF2F8CF50F2A8
:1051E00047C2F6FF48C2F7FF49C2F8FF02014A531F
:1051F00002E14B5307E00900F550EE6E4A07F8E272
:105200004B07F9D74EC2F6FF4FC2F7FF50C2F8FF67
:0C52100002014C07000E4D5BBFD71200DE
:04521C00D9CFE6FF01
:10522000DACFE6FFE1CFD9FFE2CFDAFFE652E6526E
:10523000E652E652D950FB0F006EFF0EDA20016EE7
:1052400000C0DEFFDD6EDECFE6FFDDCFE6FFFB0E4A
:10525000DBCFE6FFFC0EDBCFE6FFFD0EDBCFE6FF8C
:105260006CC2E6FF6DC2E6FFF1EC0AF0F56E070EC8
:10527000E15C02E2E16AE552E16EF550020EF3CF25
:10528000DBFF030EF4CFDBFF020EDBCF00F0030EDB
:10529000DBCF01F000C0F3FF01C0F4FFD9CFE1FF85
:1052A000DACFE2FFE552E5CFDAFFE7CFD9FF120010
:1052B000D9CFE6FFDACFE6FFE1CFD9FFE2CFDAFFC1
:1052C000FB0EDBCF00F0FC0EDBCF01F00001800E07
:1052D00001141AE1FB0EDBCFE9FFFC0EDBCFEAFF86
:1052E000EECFF3FFEDCFF4FFEE2A000EEF22F3CF67
:1052F000E9FFF4CFEAFFFD0EDBCFEFFFEF50016ACD
:10530000F36E01C0F4FF10D0FB0EDB50FE0806E187
:10531000FD0EDBCFE6FF53EC2BF005D0FD0EDBCF0F
:10532000E6FFE6EC23F0E552E552E5CFDAFFE7CF02
:04533000D9FF12008F
:0C53340033503802F3CF2FF0F4CF30F0EC
:105340003902F3503026000EF420316E33503A0209
:10535000F3503126000EF420326E33503B02F350EE
:10536000322634503802F3503026F4503122000EE9
:10537000322234503902F3503126F4503222345064
:105380003A02F350322635503802F3503126F450A9
:10539000322235503902F350322636503802F3505B
:0453A000322612009F
:0C53A400D9CFE6FFDACFE6FFE1CFD9FF5A
:1053B000E2CFDAFFC26AC16AC06AFC0EDB407F0B33
:1053C0003C0BC26EFB0EDB50C16EFC0EDB38F00BEB
:1053D000300BC112FD0EDB50800BC06EFD0EDB38B2
:1053E0000F0B070BC012FD0EDB50040DF350380BF2
:1053F000C012FC0EDBAE03D09E9C9D8CF28CC28052
:0C540000E552E5CFDAFFE7CFD9FF12003C
:04540C00FE0EE3CFDE
:10541000E9FFFF0EE3CFEAFFF36AF46AEE5203E01E
:10542000F34AF42AFBD71200FF0EE3CFF8FFE55250
:10543000FF0EE3CFF7FFE552FF0EE3CFF6FFE55295
:10544000E66AE66AE66A0900F55209E0FD0EE32A1B
:1054500005E1FE0EE32A02E1FF0EE32AF4D7FD0E7A
:10546000E3CF34F0FE0EE3CF35F0FF0EE3CF36F09E
:02547000120028
:0E547200D9CFE6FFDACFE6FFE1CFD9FFE2CFD8
:10548000DAFF3F0EC716C66AFD0EDB50C612FB0ED2
:10549000DB50C712FC0EDB50030A09E0010A04E0EE
:1054A000020A06E1C78C04D0C78CC68801D0C68822
:1054B000FD0EDB50050A03E0010A04E1978E948695
:1054C000C79E01D09496949A9488C68AE552E5CFF7
:0854D000DAFFE7CFD9FF12005B
:0854D800D9CFE6FFDACFE6FFB1
:1054E000E1CFD9FFE2CFDAFFAC6AAB6AFD0EDBB0E9
:1054F000AC88DBA202D0AC8CAB8CDBB4AC8EDBA670
:1055000002D0AB8801D0AB8ADBA802D0AC8401D03A
:10551000AC94DBAC02D09D8A01D09D9ADBAE02D068
:105520009D8801D09D98FC0EDB50AF6EAC8AAB8E8F
:0C553000E552E5CFDAFFE7CFD9FF12000B
:04553C00326A316A34
:10554000306A2F6A200EE76ED890333634363536FF
:1055500036362F3630363136323638502F5C3950A9
:1055600030583A5031583B50325809E338502F5E8A
:105570003950305A3A50315A3B50325A332AE72E7A
:04558000E4D712005A
:0C558400D9CFE6FFDACFE6FFE1CFD9FF78
:10559000E2CFDAFFE652E652C350DF6E010EC4CF0F
:1055A000DBFFDECF00F0DDCF01F000C0F3FF01C074
:1055B000F4FFE552E552E552E5CFDAFFE7CFD9FF38
:0255C0001200D7
:0E55C200326A316A100EE76ED89035363636F2
:1055D000313632363A50315C3B50325805E33A505E
:0E55E000315E3B50325A352AE72EF0D71200CA
:0255EE00CD8866
:1055F000CD8A850ECF6EED0ECE6ECD92CD96CD8E30
:105600009F909E909D80F28CCD80120002015F2BB6
:0A561000000E6023612362231200E4
:06561A0054EC11F0BFEC9E
:1056200004F00101C0910101C0A107D01DEC05F0FB
:105630000101A1AD02D09DEC24F038EC25F0F3D7A8
:02564000120056
:0E564200F36AF46AFF0EE124E96EFF0EE22027
:10565000EA6EED6607D02F0EEF6404D03A0EEF60CD
:0656600001D0F32A120044
:0A5666001EEE00F02EEE00F0F86AD0
:105670003E9CA68EA69CCDEC20F0BFEC28F00DEC55
:065680002BF0F9D7120027
:0A568600FF0EE350436E480E01D002
:105690004C0EE76EE72EFED7E76AE72EFED7432EC5
:0656A000F7D70000120024
:0A56A600FF0EE350ACBA04D0AF6A67
:1056B000AB8EAC8A949CACA2FED7AD6EF36EF46A4E
:0256C0001200D6
:0E56C200FF0EE350E84E1200000000D000D0B2
:0856D00000D0E82EFAD7120009
:0856D80070616E5F6572726F74
:0956E000723A202564200D0A0035
:0756E9003031323334353655
:0A56F00037383961626364656600B3
:0656FA00C2909D9C12000D
:04570000C28212004F
:0C57040001037F007F007F007F00000099
:08571000000000010000000090
:08571800000001000000000088
:105720000001000000000100000000000001000076
:015730000078
:045731000000000074
:0B573500000000000000000001010166
:015740000068
:0657410000000000000062
:04574700000000005E
:03574B000100005A
:020000040030CA
:0E000000FF36F6FEFFFF8BFFFFBFFF9FFFBF27
:00000001FF
